:100000001FC100000C942D0C0C94580C0C94830C04
:100010000C94AE0C0C94D90C0C94040D0C942F0D74
:100020000C945A0D3EC100003CC100003AC10000D2
:1000300038C1000036C1000034C1000032C10000E8
:1000400030C100007EC200002CC100002AC10000A7
:1000500028C1000026C1000024C100000C94850DB9
:1000600020C100001EC100001CC100001AC1000018
:1000700018C1000016C1000014C1000012C1000028
:100080008DC200000EC100000CC100000AC10000BA
:1000900008C1000006C1000004C1000002C1000048
:1000A00000C10000FEC00000A6C20000FAC00000AF
:1000B000F8C00000F6C00000F4C00000C9C2000093
:1000C000F0C00000EEC00000ECC00000EAC000007C
:1000D000E8C00000E6C000000C94DD100C94131181
:1000E000E0C00000070CD10BD90BE50BF20B130C91
:1000F000200C9D0EA00E8F0E930E990ED70EA40EFF
:10010000A80EAE0EB20EB60EBC0EC00EC40ED70EAA
:10011000CA0ECE0ED20E00000A0B02090C0D0E08FC
:1001200007030401000000000000000000000000C0
:1001300000000000000000000000000000000000BF
:10014000000012111000000000000000000000007C
:10015000000000000000000000000000010210206C
:1001600020080810204010204080020102010804ED
:100170000201010204081020408080402010080481
:1001800002018004020180402010080402010804DA
:10019000020101020408102040800102040810201E
:1001A0004080050505050705080808080202020247
:1001B0000A0A080804040404010101010101010103
:1001C0000303030303030303040707070C0C0C0CCE
:1001D0000C0C0C0C020202020606060606060606B7
:1001E0000B0B0B0B0B0B0B0B00002000230026004E
:1001F00029002C002F00320000010000030106013D
:10020000090100002200250028002B002E003100EB
:10021000340002010000050108010B01000021006B
:10022000240027002A002D003000330001010000C7
:10023000040107010A01CB0140094511DD016009F4
:1002400011241FBECFEFD1E2DEBFCDBF00E00CBF57
:1002500013E0A0E0B2E0E8EAFBE200E00BBF02C07E
:1002600007900D92A43BB107D9F729E0A4EBB3E0C6
:1002700001C01D92AC36B207E1F712E0CCE3D2E048
:1002800000E006C022970109FE010BBF0E94BF15C6
:10029000C633D10780E00807A9F70E9489110C94A2
:1002A000C315AECE8EEA94E00E94010B40E05BE401
:1002B0006EEA74E08AEB93E0F8D26EEA74E08EEFB7
:1002C00093E00E94040B6EEA74E08DEA94E00E94D1
:1002D000960A6EEA74E08FEE93E0DAD40E94CF0DB6
:1002E0006093B6037093B7038093B8039093B903F8
:1002F0001092B5031092B40308950F931F930E94B8
:10030000CF0D0091B6031091B7032091B80330913F
:10031000B903601B710B820B930B6A307105810569
:100320009105B0F10E94CF0D6093B6037093B703AF
:100330008093B8039093B9036EEA74E08DEA94E079
:100340000E94A80A6EEA74E08EEF93E00E945B0BB5
:100350006EEA74E08FEE93E0E7D48AEB93E0CFD3BC
:100360008091B4039091B50305974CF06EEA74E068
:100370008AEB93E02ED31092B5031092B4038091D0
:10038000B4039091B50301969093B5038093B403A1
:100390001F910F9108958EEA94E00E94D80A8DEA89
:1003A00094E00E94950A8EEF93E00E94020B8FEE7C
:1003B00093E05CD48AEB93E076C288E494E081C752
:1003C000CF92DF92EF92FF920F931F93CF93DF9321
:1003D0006C018B017A01EC01CE52DB4F888187FFE3
:1003E00004C0FB011182108223C02CE02C9DC001AF
:1003F0002D9D900D11242881AC01420F511D27FD28
:100400005A952091D10430E0421753078CF428818B
:10041000AC01420F511D27FD5A959A01FA01EE0FCA
:10042000FF1FE20FF31FEA52FB4F208126FD19C088
:1004300088818F5F88838CE08C9D90018D9D300D2D
:1004400011248881A901480F511D87FD5A9580917B
:10045000D10490E048175907B4F488818C303CF1FE
:1004600012C02881820F911D27FD9A95FC01EE0F85
:10047000FF1FE80FF91FEA52FB4F808160E08F7386
:100480000E94110FD5CFF8018081918104968034AC
:100490009C4918F480E49CE904C0F80180819181B2
:1004A0000496F701918380838FEF888341C0F80120
:1004B000808191814881B901640F711D47FD7A9552
:1004C000AB01FB01EE0FFF1FE40FF51FEA52FB4FDC
:1004D00041815281840F951FF70191838083888128
:1004E000A901480F511D87FD5A95FA01EE0FFF1F14
:1004F000E40FF51FEA52FB4F808186FF19C0888107
:10050000280F311D87FD3A95F901EE0FFF1FE20F0D
:10051000F31FEA52FB4F808161E08F73DF91CF912F
:100520001F910F91FF90EF90DF90CF900C94110FDF
:10053000DF91CF911F910F91FF90EF90DF90CF90BF
:1005400008951F920F920FB60F9211240BB60F92BF
:100550002F933F934F935F936F937F938F939F93CB
:10056000AF93BF93EF93FF9348E850E064E870E0E7
:1005700081E090E025DFFF91EF91BF91AF919F91D6
:100580008F917F916F915F914F913F912F910F903C
:100590000BBE0F900FBE0F901F9018951F920F92D9
:1005A0000FB60F9211240BB60F922F933F934F93D8
:1005B0005F936F937F938F939F93AF93BF93EF93CB
:1005C000FF9348E950E064E970E082E090E0F8DEF3
:1005D000FF91EF91BF91AF919F918F917F916F911B
:1005E0005F914F913F912F910F900BBE0F900FBED7
:1005F0000F901F9018951F920F920FB60F92112413
:100600000BB60F922F933F934F935F936F937F930C
:100610008F939F93AF93BF93EF93FF9348EA50E07C
:1006200064EA70E083E090E0CBDEFF91EF91BF9150
:10063000AF919F918F917F916F915F914F913F917A
:100640002F910F900BBE0F900FBE0F901F9018951B
:100650001F920F920FB60F9211240BB60F922F9389
:100660003F934F935F936F937F938F939F93AF933A
:10067000BF93EF93FF9348E251E064E271E080E0C2
:1006800090E09EDEFF91EF91BF91AF919F918F918E
:100690007F916F915F914F913F912F910F900BBE82
:1006A0000F900FBE0F901F9018952091D10420330A
:1006B000A0F431E0320F3093D104FC012083822F6B
:1006C00090E0FC01EE0FFF1FE80FF91FEA52FB4F0D
:1006D00088EB9BE09283818308952FEFFC012083B8
:1006E0000895DF92EF92FF920F931F93CF93DF93C2
:1006F000EC01D62E7A0189018881803308F068C028
:1007000061E08D2D0E94D80E8881A82FB0E0FD01F8
:10071000EE0FFF1FEA0FFB1FEA52FB4F2D2D2F7329
:100720009081907C922B908360E272E06E197F0939
:1007300077FF02C06D5F7F4F7595679575956795DB
:10074000698340E659E0401B510B57FF02C04D5FE3
:100750005F4F55954795559547954A836CE00E94A4
:100760008B159CE0899FB001112420E030E0A901A5
:10077000460F571FFA01EE0FFF1FE40FF51FEA5255
:10078000FB4F908196FD18C02F5F3F4F2C303105F5
:1007900071F790E08130910521F51092800082E0A0
:1007A000809381001092850010928400B19A80910C
:1007B0006F00826080936F00888190E0FC01EE0FF3
:1007C000FF1FE80FF91FEA52FB4F8081806480838E
:1007D0008881DF91CF911F910F91FF90EF90DF9073
:1007E00008958230910569F41092900082E0809320
:1007F0009100109295001092940088BB8093710034
:10080000DBCF8330910569F41092A00082E08093E1
:10081000A1001092A5001092A40089BB80937200E1
:10082000CBCF892B49F61092200182E080932101E1
:1008300010922501109224018ABB80937300BCCFD3
:10084000FC018081803370F5918128E830E0291B1C
:10085000310997FD3395220F331F220F331F621783
:1008600073077CF0928128E532E0291B310997FD5E
:100870003395220F331F220F331F621773070CF4B7
:100880009B0122503109220F331F4FB7F89490E09B
:10089000FC01EE0FFF1FE80FF91FEA52FB4F3283F6
:1008A00021834FBF0895029632C1FC01118210824C
:1008B000662757FD6095762F26E08FEC98E00E9422
:1008C0007D1064EC79E080E090E00E94FE0D64E22F
:1008D00072E08FEC98E00E94D3116AE372E08FEC33
:1008E00098E00E94DE114AE050E061E070E08FEC99
:1008F00098E00E948C1261E672E08FEC98E00E9412
:10090000D31122E030E04AE959E969E17FE38FEC55
:1009100098E00E946A1361E672E08FEC98E00E9412
:10092000D31122E030E04DEC5CEC6CE47DE38FEC25
:1009300098E00E946A1361E672E08FEC98E00E94F2
:10094000D3114AE050E068E077E08FEC98E00E9435
:100950008C1261E672E08FEC98E00E94D3114AE0BD
:1009600050E061E070E08FEC98E00E948C1261E64C
:1009700072E08FEC98E00E94D3114AE050E060EB07
:1009800074E08FEC98E00E948C1261E672E08FECCC
:1009900098E00E94DE1163E672E08FEC98E00E941E
:1009A000DE1161E672E08FEC98E00E94DE1164ECEB
:1009B00072E08FEC98E00E94DE1160E073E08FEC53
:1009C00098E00E94DE1161E672E08FEC98E00C94F2
:1009D000DE11EF92FF920F931F93CF93DF937C0171
:1009E0008B01EC012296CE0199D0F7012081318153
:1009F000442737FD4095542F62E0CE0193D00E94EA
:100A0000CF0D9B01AC0164E0CE018CD0F8012485B0
:100A100030E040E050E061E0CE0184D0F801448154
:100A2000558166817781CE01A4D0F801408551853A
:100A300062857385CE019DD0F8014081518162812C
:100A40007381CE0196D0F80125853685442737FD80
:100A50004095542F62E0CE0165D020E030E0A9013E
:100A600062E0CE015FD020E030E0A90162E0CE017B
:100A700059D020E030E0A90162E0CE0153D020E05F
:100A800030E0A90162E0CE014DD0F8014789508DD8
:100A9000618D728DCE016DD0F801438D548D658DC1
:100AA000768DCE0166D0F801478D50A161A172A16B
:100AB000CE015FD0CE01D1D0BC010097C9F0FC01BE
:100AC00001900020E9F7AF0141505109481B590B33
:100AD000E091CF08F091D0080280F381E02D8FECF7
:100AE00098E0DF91CF911F910F91FF90EF901994B3
:100AF000DF91CF911F910F91FF90EF900895FC012E
:100B0000208131812F5F3F4F318320830895FC0185
:100B100081E0808388E281831282089521E0FC01D4
:100B2000208308951F93CF93DF93EC017881760F94
:100B3000AFEFA70FE0E0F0E0CA0FD11DDE01CE2F2E
:100B4000C195C61780F4ED01CE0FDF1F122F1F7362
:100B5000105D1983C6E05695479537952795CA9538
:100B6000D1F73197ECCFFC017083DF91CF911F91CA
:100B70000895AF92BF92CF92DF92EF92FF920F93C0
:100B80001F93CF93DF93EC016A017B01AA24A39406
:100B900020E030E0A901C701B6010E94D11387FD12
:100BA00002C0A12C04C0F7FAF094F7F8F09408E71B
:100BB00013E0B12CF80121913191419151918F01B4
:100BC000C701B6010E94241520E03CEF4FE756E430
:100BD0000E94D11387FF04C0B39487E0B812EACF14
:100BE00084E0B89EF0011124EC58FC4F2081318143
:100BF00042815381C701B6010E9424150E9442140C
:100C00004881FE01E40FF11D2A2D220F220F220F31
:100C10002B29362F33703295307F232B205D238391
:100C20008B019C0182E036952795179507958A954B
:100C3000D1F70F73005D0283872F8F73805D8183EF
:100C40004D5F4883DF91CF911F910F91FF90EF90FF
:100C5000DF90CF90BF90AF900895FC012081E20F0C
:100C6000F11D29E22183128201960895CF93DF932B
:100C7000EC011BDDCE01039618DDCE01069615DDD5
:100C8000CE01099612DDCE010C96DF91CF910DCDEC
:100C90000F931F93CF93DF93EC0120ED37E048EEE5
:100CA00053E068E170E01DDD6CED75E0CE01C8DD5C
:100CB0008E010D5F1F4F20ED37E048EE53E06AE1F3
:100CC00070E0C8010EDD6CED75E0C801B9DD0D5FA7
:100CD0001F4F20ED37E048EE53E06CE170E0C801B3
:100CE00000DD68EE73E0C801ABDD0D5F1F4F20ED46
:100CF00037E048EE53E06EE170E0C801F2DC6CEDE5
:100D000075E0C8019DDD2C9620ED37E048EE53E0FC
:100D100060E270E0CE01E5DC6CED75E0CE01DF91C4
:100D2000CF911F910F918CCDFB0125853685203DFC
:100D3000374024F020ED37E0368725872585368536
:100D4000293E334024F428EE33E036872587658535
:100D50007685069675CD65E08C5B9F4FC4C28F92F9
:100D60009F92AF92BF92CF92DF92EF92FF920F933A
:100D70001F93CF93DF9300D01F92CDB7DEB7FC0156
:100D80006A017B01A90198016C897D89B182A082E9
:100D9000C282D382E482F5822683378340875187DB
:100DA000C286D386E486F586128E138E148E158E37
:100DB000168E178E10A211A212A213A214A215A2AF
:100DC00097AE86AE805C9F4FDC016D937C935F0194
:100DD000B2E4AB0EB11C68197909882777FD8095BC
:100DE000982F29833A834B835C830E947014298156
:100DF0003A814B815C810E94D5130E943D14F5011C
:100E0000718360830F900F900F900F90DF91CF91BF
:100E10001F910F91FF90EF90DF90CF90BF90AF9018
:100E20009F908F9008952F923F924F925F926F9272
:100E30007F928F929F92AF92BF92CF92DF92EF926A
:100E4000FF920F931F93CF93DF9300D01F92CDB7E4
:100E5000DEB71C018B01A3D66B017C01D101DA96B0
:100E60006D937D938D939C93DD97D6968D919D91F7
:100E70000D90BC91A02DA7019601281B390B4A0BA0
:100E80005B0BCA01B9010E946E1420E030E04AE712
:100E900054E40E94D5134B015C01D101D2966D93AD
:100EA0007D938D939C93D597F101C6AAD7AAE0AE06
:100EB000F1AE60817181601B710B882777FD809591
:100EC000982F0E9470142B013C01D10156966D930E
:100ED0007D938D939C935997A50194010E942415AD
:100EE000F101228D338D448D558D0E946D136B0160
:100EF0007C01D1015A966D937D938D939C935D9760
:100F00005E962D913D914D915C919197C301B201F7
:100F10000E946C13A50194010E94D5134B015C0142
:100F2000F10162A373A384A395A3EE5BFF4F00813D
:100F30001181B801882777FD8095982F0E94701441
:100F40002B013C019B01AC01C701B6010E94201599
:100F5000181644F4D1015A964D925D926D927C928E
:100F60005D9719C066277727601B710B882777FD6F
:100F70008095982F0E9470142B013C019B01AC01BD
:100F8000C701B6010E94D11387FF05C0F101428E4F
:100F9000538E648E758EB501A40181010C5B1F4FC9
:100FA000C801ABD1C801C5D16B017C01D1019296BA
:100FB0006D937D938D939C93959756962D913D912E
:100FC0004D915C91599729833A834B835C831296A8
:100FD0002D913D914D915C91159769817A818B811D
:100FE0009C810E9424154B015C01F10166A377A34B
:100FF00080A791A7228D338D448D558D6681778191
:10100000808591850E9424152B013C01D1019A967F
:101010006D937D938D939C939D971A962D913D9101
:101020004D915C911D97C701B6010E9424156B017B
:101030007C01F10166A777A780AB91ABA301920178
:10104000C501B4010E946D13A70196010E946D13A2
:101050004B015C01D10152966D937D938D939C93CE
:101060005597F101E05CFF4F60817181882777FD22
:101070008095982F0E9470146B017C019B01AC013C
:10108000C501B4010E94201587FD05C0F101C28A87
:10109000D38AE48AF58AD101DE966D917C91DF973F
:1010A000882777FD8095982F0E9470146B017C0132
:1010B0009B01AC01F10162897389848995890E9441
:1010C000D11318163CF0D1015296CD92DD92ED92DB
:1010D000FC92559729813A814B815C81D1015E96C2
:1010E0002D933D934D935C93919752966D917D9185
:1010F0008D919C9155970E943D14CB010F900F90BC
:101100000F900F90DF91CF911F910F91FF90EF9073
:10111000DF90CF90BF90AF909F908F907F906F9017
:101120005F904F903F902F900895FC0177AF66AF8E
:10113000E05CFF4F518340830895FC0166A177A1D5
:1011400080A591A50895FC0162A573A584A595A528
:101150000895FC0166A577A580A991A90895FC01D1
:10116000128E138E148E158E08958FE695E0A9D0F9
:101170008BED95E0A6D087E496E0A3D083EB96E0D4
:10118000A0D08FE197E09DD08BE897E09AD087EFD1
:1011900097E097D083E698E094C01F93CF93DF93B6
:1011A000EC01162F65E009969ED01883DF91CF9150
:1011B0001F910895CF93DF93EC01862F698362E03E
:1011C000F7D5E881F0E0EE0FFF1FEC5FFD4F608187
:1011D00071819981923049F0933049F08EEE890FF8
:1011E000843038F487E1891B05C080E003C081E0CA
:1011F00001C08FEF41E050E0DF91CF91BDC2CF93AE
:10120000DF93EC01898142D6892BA1F4D4D42B81C0
:101210003C81621B730B78876F83882777FD8095ED
:10122000982F0E947014AB01BC01CE010996DF918A
:10123000CF9163C0C0D46B837C838D839E83DF9109
:10124000CF9108958AE598E0DACF8EEE97E0D7CF78
:1012500082E897E0D4CF86E197E0D1CF8AEA96E0A2
:10126000CECF8EE396E0CBCF82ED95E0C8CF86E679
:1012700095E0C5CF099609D10E943D14CB01089590
:1012800060E08AE598E089DF61E08EEE97E085DF37
:1012900062E082E897E081DF63E086E197E07DDF4E
:1012A00064E08AEA96E079DF65E08EE396E075DF38
:1012B00066E082ED95E071DF67E086E695E06DCF50
:1012C00054CF0895FC011282138210823181482F7D
:1012D000282F241B231730F4FC01E05BFF4F2083F1
:1012E0000196F6CF0895662321F0643118F063E18A
:1012F00001C061E0FC016183E5CFFC01938181E0E5
:10130000890F8383DF0124E0929FA00DB11D11247A
:1013100014964D935D936D937C93179791818917E4
:1013200008F013828281891710F48F5F8283108204
:101330000895CF92DF92EF92FF920F931F93CF9376
:10134000DF93FC010281002309F1EC0110E0C12CC4
:10135000D12C76012496101761F0288139814A81B9
:101360005B81C701B6010E946D136B017C011F5F99
:10137000F1CF612F70E080E090E00E9470149B013B
:10138000AC01C701B6010E94D51304C060E070E053
:1013900080EC9FE7DF91CF911F910F91FF90EF902D
:1013A000DF90CF9008953F924F925F926F927F921D
:1013B0008F929F92AF92BF92CF92DF92EF92FF9265
:1013C0000F931F93CF93DF93EC01EA80F12C570129
:1013D00021E0A21AB108612C862D90E08A159B05A8
:1013E000A4F081E08883DF91CF911F910F91FF904E
:1013F000EF90DF90CF90BF90AF909F908F907F90B5
:101400006F905F904F903F90089577247394552488
:1014100053946701C81AD90A872D90E08C159D0551
:1014200084F58E01080F191F015B1F4FF8014080E2
:101430008C0F9D1F4C01F0E58F0E911CF401308044
:10144000FE0124E0429EE00DF11D1124DE0184E046
:10145000389EA00DB11D112414962D913D914D91F2
:101460005C91179764817581868197810E94201510
:1014700018162CF4F8013082F4014082512C739438
:10148000CBCF5110AECF6394A7CFCF93DF93EC01B6
:101490008A81882309F442C08881811102C0CE016B
:1014A00082DF9A81892F869590FF10C0FE01E80F98
:1014B000F11DE05BFF4F808124E0829FC00DD11DB4
:1014C00011246C817D818E819F812CC09E01280F0B
:1014D000311DC901F901E05BFF4F2081FE0134E0BD
:1014E000239FE00DF11D1124DC01A15BBF4F8C9106
:1014F00094E0899FC00DD11D11242C813D814E8126
:101500005F8164817581868197810E946D1320E0DF
:1015100030E040E05FE30E94241504C060E070E02A
:1015200080EC9FE7DF91CF910895089565E18AE50A
:1015300098E040DE64E18EEE97E03CDE63E182E815
:1015400097E038DE61E082E133D460E082E169C493
:10155000CF93DF93EB018AE598E08CDEBC0188270E
:1015600077FD8095982F0E9470146C837D838E8305
:101570009F838EEE97E07EDEBC01882777FD809505
:10158000982F0E947014688779878A879B8782E8E2
:1015900097E070DEBC01882777FD8095982F0E9428
:1015A0007014688379838A839B83DF91CF91089538
:1015B0000895FC0110821182128213821482158216
:1015C00016821782108611861286138681E0848720
:1015D0008CED95E096878587908B8787928B818BA2
:1015E000948B838B968B858B178A108E118E128E1F
:1015F000138E148E158E168E178E10A211A212A2A3
:101600000895D7CF0696A7CB6F927F928F929F9225
:10161000AF92BF92CF92DF92EF92FF920F931F9300
:10162000CF93DF93EC0180EB94E099838883FB01F7
:1016300060817181828193810E943D147B836A83E2
:101640003E01F6E06F0E711C48EE53E060E070E082
:10165000C3016BDDA880B98083E08F9388EE8F9300
:10166000812C912C8DECC82E8CECD82E8CE4E82E9D
:101670008DE3F82E0AE919E929E13FE340E050E063
:1016800060E87FE3C3016BDBC355DF4F8AE090E086
:10169000998388830F900F90DF91CF911F910F91C5
:1016A000FF90EF90DF90CF90BF90AF909F908F9082
:1016B0007F906F900895EF92FF920F931F93CF93B7
:1016C000DF938C01EB0186E1E1D38C87688179811E
:1016D0008A819B810E943D14D80113967C936E935E
:1016E0001297F801E355FF4F8081918197FD09C062
:1016F00020EB34E013963C932E931297019791833D
:1017000080838C85F80136967F01813011F4CF01FA
:1017100026DDD80112966D917C911397C70183DB6A
:10172000F80195838483C70108DD6F8B788F898FDB
:101730009A8FC70108DD6B8F7C8F8D8F9E8FC701BD
:1017400008DD6F8F78A389A39AA3D80114968D9191
:101750009C91159788519C4F8830B7E09B0714F0F7
:1017600088E097E09E878D87DF91CF911F910F9141
:10177000FF90EF9008950895883008F06DC0E82F2D
:10178000F0E0EE0FFF1FEC5EFD4F7183608390E091
:10179000FC013197E730F10590F5EE58FF4F0C94BE
:1017A000B915809169008C7F842B80936900E89A39
:1017B000089580916900440F551F440F551F837F82
:1017C000842B80936900E99A08958091690074E000
:1017D000440F551F7A95E1F78F7C842B8093690025
:1017E000EA9A08958091690066E0440F551F6A9552
:1017F000E1F78F73842B80936900EB9A08958091B1
:101800006A008C7F842B80936A00EC9A0895809103
:101810006A00440F551F440F551F837F842B80930C
:101820006A00ED9A089580916A0024E0440F551FE4
:101830002A95E1F78F7C842B80936A00EE9A0895B5
:1018400080916A0096E0440F551F9A95E1F78F73D7
:10185000842B80936A00EF9A08951F920F920FB61F
:101860000F9211240BB60F922F933F934F935F93D8
:101870006F937F938F939F93AF93BF93EF93FF9358
:10188000E0911802F09119021995FF91EF91BF9123
:10189000AF919F918F917F916F915F914F913F9108
:1018A0002F910F900BBE0F900FBE0F901F901895A9
:1018B0001F920F920FB60F9211240BB60F922F9317
:1018C0003F934F935F936F937F938F939F93AF93C8
:1018D000BF93EF93FF93E0911A02F0911B021995C9
:1018E000FF91EF91BF91AF919F918F917F916F91F8
:1018F0005F914F913F912F910F900BBE0F900FBEB4
:101900000F901F9018951F920F920FB60F921124EF
:101910000BB60F922F933F934F935F936F937F93E9
:101920008F939F93AF93BF93EF93FF93E0911C022C
:10193000F0911D021995FF91EF91BF91AF919F9189
:101940008F917F916F915F914F913F912F910F9068
:101950000BBE0F900FBE0F901F9018951F920F9205
:101960000FB60F9211240BB60F922F933F934F9304
:101970005F936F937F938F939F93AF93BF93EF93F7
:10198000FF93E0911E02F0911F021995FF91EF91D4
:10199000BF91AF919F918F917F916F915F914F9187
:1019A0003F912F910F900BBE0F900FBE0F901F9085
:1019B00018951F920F920FB60F9211240BB60F922B
:1019C0002F933F934F935F936F937F938F939F9347
:1019D000AF93BF93EF93FF93E0911402F091150240
:1019E0001995FF91EF91BF91AF919F918F917F9149
:1019F0006F915F914F913F912F910F900BBE0F9080
:101A00000FBE0F901F9018951F920F920FB60F9256
:101A100011240BB60F922F933F934F935F936F93C5
:101A20007F938F939F93AF93BF93EF93FF93E09137
:101A30001602F09117021995FF91EF91BF91AF91A6
:101A40009F918F917F916F915F914F913F912F91D6
:101A50000F900BBE0F900FBE0F901F9018951F9206
:101A60000F920FB60F9211240BB60F922F933F9344
:101A70004F935F936F937F938F939F93AF93BF9396
:101A8000EF93FF93E0912002F09121021995FF91CD
:101A9000EF91BF91AF919F918F917F916F915F91E6
:101AA0004F913F912F910F900BBE0F900FBE0F9053
:101AB0001F9018951F920F920FB60F9211240BB61C
:101AC0000F922F933F934F935F936F937F938F93D7
:101AD0009F93AF93BF93EF93FF93E0912202F09116
:101AE00023021995FF91EF91BF91AF919F918F9133
:101AF0007F916F915F914F913F912F910F900BBE0E
:101B00000F900FBE0F901F9018951F920F920FB657
:101B10000F9211242F933F938F939F93AF93BF9373
:101B20008091C7089091C808A091C908B091CA08CF
:101B30003091C60823E0230F2D3720F40196A11D14
:101B4000B11D05C026E8230F0296A11DB11D2093EB
:101B5000C6088093C7089093C808A093C908B0939B
:101B6000CA088091CB089091CC08A091CD08B09183
:101B7000CE080196A11DB11D8093CB089093CC088F
:101B8000A093CD08B093CE08BF91AF919F918F9154
:101B90003F912F910F900FBE0F901F9018952FB768
:101BA000F8946091C7087091C8088091C908909115
:101BB000CA082FBF08953FB7F8948091CB08909141
:101BC000CC08A091CD08B091CE0826B5A89B05C041
:101BD0002F3F19F00196A11DB11D3FBF6627782F39
:101BE000892F9A2F620F711D811D911D42E0660F92
:101BF000771F881F991F4A95D1F70895CF92DF92DA
:101C0000EF92FF92CF93DF936B017C01D4DFEB0166
:101C1000C114D104E104F10479F05DD5CCDF6C1B73
:101C20007D0B683E7340A0F381E0C81AD108E1083B
:101C3000F108C851DC4FECCFDF91CF91FF90EF90CE
:101C4000DF90CF900895789484B5826084BD84B588
:101C5000816084BD85B5826085BD85B5816085BDA7
:101C6000EEE6F0E0808181608083E1E8F0E01082C0
:101C7000808182608083808181608083E0E8F0E001
:101C8000808181608083E1EBF0E0808184608083EB
:101C9000E0EBF0E0808181608083E1E9F0E0808129
:101CA00082608083808181608083E0E9F0E08081D0
:101CB00081608083E1EAF0E08081826080838081BE
:101CC00081608083E0EAF0E0808181608083E1E2EE
:101CD000F1E0808182608083808181608083E0E2A6
:101CE000F1E0808181608083EAE7F0E080818460B8
:101CF0008083808182608083808181608083808115
:101D0000806880831092C100089590E0FC013197B3
:101D1000E231F10508F04BC0E758FF4F2AC7809128
:101D200080008F7703C0809180008F7D809380003A
:101D3000089580918000877FF9CF84B58F7702C0A6
:101D400084B58F7D84BD08958091B0008F7703C0E6
:101D50008091B0008F7D8093B000089580919000B5
:101D60008F7707C0809190008F7D03C08091900095
:101D7000877F8093900008958091A0008F7707C09F
:101D80008091A0008F7D03C08091A000877F809309
:101D9000A0000895809120018F7707C080912001D5
:101DA0008F7D03C080912001877F8093200108955B
:101DB000CF93DF9390E0FC01E45AFE4F2491FC01A5
:101DC000EE55FE4F8491882349F190E0880F991FCA
:101DD000FC01E45EFD4FA591B4918E5F9D4FFC0127
:101DE000C591D4919FB7611108C0F8948C9120954A
:101DF00082238C93888182230AC0623051F4F89444
:101E00008C91322F309583238C938881822B888309
:101E100004C0F8948C91822B8C939FBFDF91CF915B
:101E200008950F931F93CF93DF931F92CDB7DEB723
:101E3000282F30E0F901EA5EFE4F8491F901E45A5F
:101E4000FE4F1491F901EE55FE4F04910023C1F0AD
:101E5000882319F0698359DF6981E02FF0E0EE0FE4
:101E6000FF1FEE5FFD4FA591B4919FB7F8948C9141
:101E7000611103C01095812301C0812B8C939FBFFA
:101E80000F90DF91CF911F910F910895CF93DF9322
:101E9000282F30E0F901EA5EFE4F8491F901E45AFF
:101EA000FE4FD491F901EE55FE4FC491CC2389F039
:101EB00081112BDFEC2FF0E0EE0FFF1FE851FE4FFA
:101EC000A591B4912C912D2381E090E021F480E044
:101ED00002C080E090E0DF91CF910895FC01818DF8
:101EE000228D90E0805C9F4F821B91098F73992710
:101EF0000895FC01918D828D981731F0828DE80F45
:101F0000F11D858D90E008958FEF9FEF0895FC01FE
:101F1000918D828D981761F0828DDF01A80FB11D20
:101F20005D968C91928D9F5F9F73928F90E0089544
:101F30008FEF9FEF089580E090E0892B41F080E0E3
:101F400090E0892B21F00E940000811124C080E0E4
:101F500090E0892B41F080E090E0892B21F00E94F5
:101F6000000081111BC080E090E0892B41F080E0EF
:101F700090E0892B21F00E940000811112C08CE3B7
:101F800091E1892B99F080E090E0892B79F074D170
:101F900081110AC008950E940000D9CF0E9400005C
:101FA000E2CF0E940000EBCF0C9400000895FC01EA
:101FB000848DDF01A80FB11DA35ABF4F2C91848DD2
:101FC00090E001968F739927848FA689B7892C9307
:101FD000A089B1898C9180648C93938D848D9813A2
:101FE00006C00288F389E02D80818F7D808308956B
:101FF000CF93DF93EC01888D8823C1F0EA89FB89B8
:10200000808185FD05C0A889B9898C9186FD0EC0A7
:102010000FB607FCF5CF808185FFF2CFA889B9897B
:102020008C9185FFEDCFCE01C2DFE8CFDF91CF915C
:102030000895CF92DF92FF920F931F93CF93DF9378
:102040001F92CDB7DEB76C0181E0D60158968C9314
:1020500058975B969C915B975C968C915C979813D4
:1020600007C05096ED91FC915197808185FD2DC060
:10207000F601038D10E00F5F1F4F0F731127F02E35
:10208000F601848DF81210C00FB607FCF9CFD60107
:102090005096ED91FC915197808185FFF1CFC6015B
:1020A000698385DF6981ECCF838DE80FF11DE35AE9
:1020B000FF4F6083D6015B960C935B975296ED9130
:1020C000FC915397808180620CC0D6015696ED91A9
:1020D000FC91579760835096ED91FC9151978081C8
:1020E0008064808381E090E00F90DF91CF911F9119
:1020F0000F91FF90DF90CF900895BF92CF92DF9223
:10210000EF92FF92CF93DF93EC016A017B01B22E35
:10211000E889F98982E08083411581EE58076105DD
:10212000710599F060E079E08DE390E0A7019601F8
:10213000FED42150310941095109569547953795EB
:102140002795211580E1380790F0E889F9891082F8
:1021500060E874E88EE190E0A7019601E8D4215090
:102160003109410951095695479537952795EC85D1
:10217000FD853083EE85FF852083188EEC89FD89EF
:10218000B082EA89FB89808180618083EA89FB894A
:10219000808188608083EA89FB8980818068808370
:1021A000EA89FB8980818F7D8083DF91CF91FF90C9
:1021B000EF90DF90CF90BF9008951F920F920FB6CF
:1021C0000F9211240BB60F922F938F939F93EF933F
:1021D000FF93E091DF08F091E0088081E091E5084D
:1021E000F091E60882FD12C090818091E8088F5F2F
:1021F0008F732091E908821751F0E091E808F0E030
:10220000E153F74F958F8093E80801C08081FF91DB
:10221000EF919F918F912F910F900BBE0F900FBE5A
:102220000F901F9018951F920F920FB60F921124C6
:102230000BB60F922F933F934F935F936F937F93C0
:102240008F939F93AF93BF93EF93FF938FEC98E09F
:10225000AEDEFF91EF91BF91AF919F918F917F91F2
:102260006F915F914F913F912F910F900BBE0F9007
:102270000FBE0F901F9018958FEC98E02FDE21E095
:10228000892B09F420E0822F08951092D208109231
:10229000D10888EE93E0A0E0B0E08093D30890935B
:1022A000D408A093D508B093D60888E993E090931A
:1022B000D0088093CF0885E391E09093DC08809369
:1022C000DB0884E391E09093DE088093DD0880E3EF
:1022D00091E09093E0088093DF0881E391E0909390
:1022E000E2088093E10882E391E09093E408809310
:1022F000E30886E391E09093E6088093E508109266
:10230000E8081092E9081092EA081092EB08089584
:10231000089599DCFDDF0E945201CBE9DFE00E94C5
:102320007D012097E1F307DEFACFCF92DF92EF92A3
:10233000FF920F931F93CF93DF937C016A01EB0110
:1023400000E010E00C151D0571F06991D701ED91C9
:10235000FC910190F081E02DC7011995892B19F0AE
:102360000F5F1F4FEFCFC801DF91CF911F910F91EA
:10237000FF90EF90DF90CF9008956115710581F087
:10238000DB010D900020E9F7AD0141505109461BDA
:10239000570BDC01ED91FC910280F381E02D199443
:1023A00080E090E00895E9CFDC01ED91FC9101908F
:1023B000F081E02D199464EA73E0DFCF0F931F934F
:1023C000CF93DF93EC01D9DF8C01CE01F4DF800FD6
:1023D000911FDF91CF911F910F9108958F929F923E
:1023E000AF92BF92CF92DF92EF92FF920F931F9323
:1023F000CF93DF93CDB7DEB7A1970FB6F894DEBFCA
:102400000FBECDBF7C01C42EE52FCB01D22E19A269
:1024100021E02D1510F02AE0D22E8E010F5D1F4F06
:102420008D2C912CA12CB12C6C2D7E2FA50194010B
:102430007ED38C2DD29E80191124015011098A302F
:1024400014F4805D01C0895CF80180832115310599
:102450004105510521F0C22EE32FCA01E5CFB80195
:10246000C7018BDFA1960FB6F894DEBF0FBECDBFBC
:10247000DF91CF911F910F91FF90EF90DF90CF9060
:10248000BF90AF909F908F900895CF92DF92EF9280
:10249000FF920F931F93CF93DF93EC016A017B01AF
:1024A0002115310579F4E881F9810190F081E02D61
:1024B000642FDF91CF911F910F91FF90EF90DF90EC
:1024C000CF9019942A303105D9F477FF18C06DE206
:1024D0006BDF8C0144275527BA014C195D096E0941
:1024E0007F092AE0CE017ADF800F911FDF91CF9123
:1024F0001F910F91FF90EF90DF90CF9008952AE009
:10250000B701A601CE01DF91CF911F910F91FF90EE
:10251000EF90DF90CF9062CF9A01AB01662757FD15
:102520006095762FB2CF4F925F926F927F928F928B
:102530009F92AF92BF92CF92DF92EF92FF920F9352
:102540001F93CF93DF93EC016A017B01B22E9A01B6
:10255000AB01C701B601DBD2882319F067EA73E04B
:1025600024C026013701E89477F82FEF3FEF4FE7BB
:102570005FE7C301B201CBD281110CC02FEF3FEF57
:102580004FE75FE7C301B2010CD118161CF46BEAE8
:1025900073E00BC02FEF3FEF4FE75FE4C701B601D9
:1025A0004FD21816A4F46FEA73E0CE01DF91CF91F9
:1025B0001F910F91FF90EF90DF90CF90BF90AF9061
:1025C0009F908F907F906F905F904F90D6CE2FEF1F
:1025D0003FEF4FE75FECC701B601E3D087FDE3CFE4
:1025E00020E030E0A901C701B601DBD087FF09C0B8
:1025F0006DE2CE01D9DE8C01F7FAF094F7F8F09491
:1026000002C000E010E0A12C60E070E080E09FE3F9
:10261000AB1439F020E030E040E251E4C6D0A3949E
:10262000F7CF9B01AC01C701B60157D06B017C010C
:1026300029D12B013C0152D19B01AC01C701B6014C
:102640004BD06B017C012AE0B301A201CE01C6DEB2
:10265000080F191FBB2031F068E372E0CE018DDE58
:10266000080F191F7B2C772019F120E030E040E2A1
:1026700051E4C701B601E8D16B017C01FED04B01EA
:10268000AA2497FCA094BA2C2AE030E0B501A4015A
:10269000CE01FBDE080F191FC501B40121D19B013A
:1026A000AC01C701B60118D06B017C017A94DBCF75
:1026B000C801DF91CF911F910F91FF90EF90DF90B4
:1026C000CF90BF90AF909F908F907F906F905F90D2
:1026D0004F90089528CF08955058BB27AA270ED0B1
:1026E00075C166D130F06BD120F031F49F3F11F409
:1026F0001EF45BC10EF4E095E7FB51C1E92F77D1E1
:1027000080F3BA17620773078407950718F071F40E
:102710009EF58FC10EF4E0950B2EBA2FA02D0B0164
:10272000B90190010C01CA01A0011124FF27591B16
:1027300099F0593F50F4503E68F11A16F040A22F1C
:10274000232F342F4427585FF3CF4695379527958D
:10275000A795F0405395C9F77EF41F16BA0B620B8C
:10276000730B840BBAF09150A1F0FF0FBB1F661FD3
:10277000771F881FC2F70EC0BA0F621F731F841F16
:1027800048F4879577956795B795F7959E3F08F03C
:10279000B3CF9395880F08F09927EE0F97958795FB
:1027A0000895D9D008F481E008950CD00FC107D165
:1027B00040F0FED030F021F45F3F19F0F0C051112D
:1027C00039C1F3C014D198F39923C9F35523B1F358
:1027D000951B550BBB27AA2762177307840738F090
:1027E0009F5F5F4F220F331F441FAA1FA9F333D0EF
:1027F0000E2E3AF0E0E830D091505040E695001CA3
:10280000CAF729D0FE2F27D0660F771F881FBB1F5E
:10281000261737074807AB07B0E809F0BB0B802D38
:10282000BF01FF2793585F4F2AF09E3F510568F084
:10283000B6C000C15F3FECF3983EDCF38695779518
:102840006795B795F7959F5FC9F7880F911D969586
:10285000879597F90895E1E0660F771F881FBB1FE2
:10286000621773078407BA0720F0621B730B840B8F
:10287000BA0BEE1F88F7E095089504D06894B11163
:10288000D9C00895BCD088F09F5790F0B92F9927F0
:10289000B751A0F0D1F0660F771F881F991F1AF06B
:1028A000BA95C9F712C0B13081F0C3D0B1E0089534
:1028B000C0C0672F782F8827B85F39F0B93FCCF3B5
:1028C000869577956795B395D9F73EF49095809561
:1028D000709561957F4F8F4F9F4F0895E89409C081
:1028E00097FB3EF490958095709561957F4F8F4F43
:1028F0009F4F9923A9F0F92F96E9BB279395F69559
:10290000879577956795B795F111F8CFFAF4BB0FD6
:1029100011F460FF1BC06F5F7F4F8F4F9F4F16C03A
:10292000882311F096E911C0772321F09EE8872FC4
:10293000762F05C0662371F096E8862F70E060E080
:102940002AF09A95660F771F881FDAF7880F9695F9
:10295000879597F90895990F0008550FAA0BE0E89D
:10296000FEEF16161706E807F907C0F01216130651
:10297000E407F50798F0621B730B840B950B39F491
:102980000A2661F0232B242B252B21F408950A26F7
:1029900009F4A140A6958FEF811D811D089597F937
:1029A0009F6780E870E060E008959FEF80EC0895F5
:1029B00000240A941616170618060906089500241E
:1029C0000A9412161306140605060895092E039498
:1029D000000C11F4882352F0BB0F40F4BF2B11F40C
:1029E00060FF04C06F5F7F4F8F4F9F4F089557FD6B
:1029F0009058440F551F59F05F3F71F04795880F6D
:102A000097FB991F61F09F3F79F087950895121603
:102A100013061406551FF2CF4695F1DF08C01616AF
:102A200017061806991FF1CF869571056105089460
:102A30000895E894BB2766277727CB0197F9089577
:102A40008ADF08F48FEF08950BD0C0CFB1DF28F0F4
:102A5000B6DF18F0952309F0A2CFA7CF1124EACF53
:102A6000C6DFA0F3959FD1F3950F50E0551F629FED
:102A7000F001729FBB27F00DB11D639FAA27F00DD7
:102A8000B11DAA1F649F6627B00DA11D661F829FFE
:102A90002227B00DA11D621F739FB00DA11D621FE3
:102AA000839FA00D611D221F749F3327A00D611D00
:102AB000231F849F600D211D822F762F6A2F1124E2
:102AC0009F5750408AF0E1F088234AF0EE0FFF1F35
:102AD000BB1F661F771F881F91505040A9F79E3F6C
:102AE000510570F05CCFA6CF5F3FECF3983EDCF36E
:102AF000869577956795B795F795E7959F5FC1F7A9
:102B0000FE2B880F911D9695879597F9089523DFE1
:102B1000880B990B0895991B79E004C0991F9617AB
:102B200008F0961B881F7A95C9F780950895A1E251
:102B30001A2EAA1BBB1BFD010DC0AA1FBB1FEE1F37
:102B4000FF1FA217B307E407F50720F0A21BB30B82
:102B5000E40BF50B661F771F881F991F1A9469F7FE
:102B600060957095809590959B01AC01BD01CF015A
:102B70000895EE0FFF1F0590F491E02D1994079032
:102B8000F691E02D199412E0CCE3D2E000E005C00C
:102B900022970109FE010BBFF2DFC034D10780E0AC
:082BA0000807B1F7F894FFCF1C
:102BA800010000002209250928092B092E093109ED
:102BB80034093709BB0BBB0BBB0BBB0BBB0BBB0BEC
:102BC800BB0BBB0B496E6974696174696E67206CD5
:102BD8006F6767696E672E2E2E0053756363657382
:102BE8007366756C2120496E697469616C20566141
:102BF8006C75657320617320666F6C6C6F77733AC0
:102C0800002000414C5449545544455F4B502C41D9
:102C18004C5449545544455F4B492C414C544954F4
:102C28005544455F4B442C5448524F54544C455FCF
:102C38004C494D49542C414C5449545544455F50D6
:102C480049445F4741494E5F524154494F2C414CDA
:102C58005449545544455F484F5645525F48454985
:102C680047485400426567696E6E696E6720436F16
:102C78006E74726F6C204C6F6F702E2E2E6C6F6797
:102C880067696E67206461746120696E20666F6C85
:102C98006C6F77696E672073657175656E63650023
:102CA8004C6F674E6F2C54696D65737465702C4357
:102CB8006F6E74726F6C4D6F64652C466F776172BE
:102CC800645553312C466F776172645553322C41E9
:102CD8006C74697475646555532C5468726F747498
:102CE8006C654354524C2C5961774354524C2C52C6
:102CF8006F6C6C4354524C2C506974636843545243
:102D08004C2C53746162696C6974794D6F646543C6
:102D180074726C00CDCCCC3D0000803F0000204197
:102D28000000C84200007A4400401C460050C347D7
:102D38000024744900000000191095116E0F870FC8
:102D4800790FF80F0D0A006E616E00696E66006FEC
:042D5800766600009B
:00000001FF
